{
  "_format": "hh-sol-artifact-1",
  "contractName": "TouristRegistry",
  "sourceName": "contracts/TouristRegistry.sol",
  "abi": [
    {
      "inputs": [
        {
          "internalType": "string",
          "name": "dtid",
          "type": "string"
        }
      ],
      "name": "checkAndUpdateStatus",
      "outputs": [],
      "stateMutability": "nonpayable",
      "type": "function"
    },
    {
      "inputs": [
        {
          "internalType": "string",
          "name": "dtid",
          "type": "string"
        }
      ],
      "name": "getTourist",
      "outputs": [
        {
          "components": [
            {
              "internalType": "string",
              "name": "dtid",
              "type": "string"
            },
            {
              "internalType": "string",
              "name": "aadhaarHash",
              "type": "string"
            },
            {
              "internalType": "string",
              "name": "tripHash",
              "type": "string"
            },
            {
              "internalType": "uint256",
              "name": "issuedAt",
              "type": "uint256"
            },
            {
              "internalType": "uint256",
              "name": "returnDate",
              "type": "uint256"
            },
            {
              "internalType": "bool",
              "name": "isActive",
              "type": "bool"
            }
          ],
          "internalType": "struct TouristRegistry.Tourist",
          "name": "",
          "type": "tuple"
        }
      ],
      "stateMutability": "view",
      "type": "function"
    },
    {
      "inputs": [
        {
          "internalType": "string",
          "name": "dtid",
          "type": "string"
        }
      ],
      "name": "isActiveTourist",
      "outputs": [
        {
          "internalType": "bool",
          "name": "",
          "type": "bool"
        }
      ],
      "stateMutability": "view",
      "type": "function"
    },
    {
      "inputs": [
        {
          "internalType": "string",
          "name": "dtid",
          "type": "string"
        },
        {
          "internalType": "string",
          "name": "aadhaarHash",
          "type": "string"
        },
        {
          "internalType": "string",
          "name": "tripHash",
          "type": "string"
        },
        {
          "internalType": "uint256",
          "name": "returnDate",
          "type": "uint256"
        }
      ],
      "name": "registerTourist",
      "outputs": [],
      "stateMutability": "nonpayable",
      "type": "function"
    },
    {
      "inputs": [
        {
          "internalType": "string",
          "name": "",
          "type": "string"
        }
      ],
      "name": "tourists",
      "outputs": [
        {
          "internalType": "string",
          "name": "dtid",
          "type": "string"
        },
        {
          "internalType": "string",
          "name": "aadhaarHash",
          "type": "string"
        },
        {
          "internalType": "string",
          "name": "tripHash",
          "type": "string"
        },
        {
          "internalType": "uint256",
          "name": "issuedAt",
          "type": "uint256"
        },
        {
          "internalType": "uint256",
          "name": "returnDate",
          "type": "uint256"
        },
        {
          "internalType": "bool",
          "name": "isActive",
          "type": "bool"
        }
      ],
      "stateMutability": "view",
      "type": "function"
    }
  ],
  "bytecode": "0x6080604052348015600f57600080fd5b506111178061001f6000396000f3fe608060405234801561001057600080fd5b50600436106100575760003560e01c806311ac1db51461005c5780637cce640714610091578063959ed9d2146100ad578063c6f02aec146100c9578063d112b5e3146100f9575b600080fd5b61007660048036038101906100719190610a1b565b610129565b60405161008896959493929190610b17565b60405180910390f35b6100ab60048036038101906100a69190610a1b565b610320565b005b6100c760048036038101906100c29190610bb9565b61036f565b005b6100e360048036038101906100de9190610a1b565b61043c565b6040516100f09190610c74565b60405180910390f35b610113600480360381019061010e9190610a1b565b61066c565b6040516101209190610d8e565b60405180910390f35b60008180516020810182018051848252602083016020850120818352809550505050505060009150905080600001805461016290610ddf565b80601f016020809104026020016040519081016040528092919081815260200182805461018e90610ddf565b80156101db5780601f106101b0576101008083540402835291602001916101db565b820191906000526020600020905b8154815290600101906020018083116101be57829003601f168201915b5050505050908060010180546101f090610ddf565b80601f016020809104026020016040519081016040528092919081815260200182805461021c90610ddf565b80156102695780601f1061023e57610100808354040283529160200191610269565b820191906000526020600020905b81548152906001019060200180831161024c57829003601f168201915b50505050509080600201805461027e90610ddf565b80601f01602080910402602001604051908101604052809291908181526020018280546102aa90610ddf565b80156102f75780601f106102cc576101008083540402835291602001916102f7565b820191906000526020600020905b8154815290600101906020018083116102da57829003601f168201915b5050505050908060030154908060040154908060050160009054906101000a900460ff16905086565b600080826040516103319190610e4c565b90815260200160405180910390209050806004015442111561036b5760008160050160006101000a81548160ff0219169083151502179055505b5050565b6040518060c00160405280858152602001848152602001838152602001428152602001828152602001600115158152506000856040516103af9190610e4c565b908152602001604051809103902060008201518160000190816103d2919061100f565b5060208201518160010190816103e8919061100f565b5060408201518160020190816103fe919061100f565b50606082015181600301556080820151816004015560a08201518160050160006101000a81548160ff02191690831515021790555090505050505050565b60008060008360405161044f9190610e4c565b90815260200160405180910390206040518060c001604052908160008201805461047890610ddf565b80601f01602080910402602001604051908101604052809291908181526020018280546104a490610ddf565b80156104f15780601f106104c6576101008083540402835291602001916104f1565b820191906000526020600020905b8154815290600101906020018083116104d457829003601f168201915b5050505050815260200160018201805461050a90610ddf565b80601f016020809104026020016040519081016040528092919081815260200182805461053690610ddf565b80156105835780601f1061055857610100808354040283529160200191610583565b820191906000526020600020905b81548152906001019060200180831161056657829003601f168201915b5050505050815260200160028201805461059c90610ddf565b80601f01602080910402602001604051908101604052809291908181526020018280546105c890610ddf565b80156106155780601f106105ea57610100808354040283529160200191610615565b820191906000526020600020905b8154815290600101906020018083116105f857829003601f168201915b5050505050815260200160038201548152602001600482015481526020016005820160009054906101000a900460ff16151515158152505090508060a001518015610664575080608001514211155b915050919050565b610674610889565b6000826040516106849190610e4c565b90815260200160405180910390206040518060c00160405290816000820180546106ad90610ddf565b80601f01602080910402602001604051908101604052809291908181526020018280546106d990610ddf565b80156107265780601f106106fb57610100808354040283529160200191610726565b820191906000526020600020905b81548152906001019060200180831161070957829003601f168201915b5050505050815260200160018201805461073f90610ddf565b80601f016020809104026020016040519081016040528092919081815260200182805461076b90610ddf565b80156107b85780601f1061078d576101008083540402835291602001916107b8565b820191906000526020600020905b81548152906001019060200180831161079b57829003601f168201915b505050505081526020016002820180546107d190610ddf565b80601f01602080910402602001604051908101604052809291908181526020018280546107fd90610ddf565b801561084a5780601f1061081f5761010080835404028352916020019161084a565b820191906000526020600020905b81548152906001019060200180831161082d57829003601f168201915b5050505050815260200160038201548152602001600482015481526020016005820160009054906101000a900460ff1615151515815250509050919050565b6040518060c0016040528060608152602001606081526020016060815260200160008152602001600081526020016000151581525090565b6000604051905090565b600080fd5b600080fd5b600080fd5b600080fd5b6000601f19601f8301169050919050565b7f4e487b7100000000000000000000000000000000000000000000000000000000600052604160045260246000fd5b610928826108df565b810181811067ffffffffffffffff82111715610947576109466108f0565b5b80604052505050565b600061095a6108c1565b9050610966828261091f565b919050565b600067ffffffffffffffff821115610986576109856108f0565b5b61098f826108df565b9050602081019050919050565b82818337600083830152505050565b60006109be6109b98461096b565b610950565b9050828152602081018484840111156109da576109d96108da565b5b6109e584828561099c565b509392505050565b600082601f830112610a0257610a016108d5565b5b8135610a128482602086016109ab565b91505092915050565b600060208284031215610a3157610a306108cb565b5b600082013567ffffffffffffffff811115610a4f57610a4e6108d0565b5b610a5b848285016109ed565b91505092915050565b600081519050919050565b600082825260208201905092915050565b60005b83811015610a9e578082015181840152602081019050610a83565b60008484015250505050565b6000610ab582610a64565b610abf8185610a6f565b9350610acf818560208601610a80565b610ad8816108df565b840191505092915050565b6000819050919050565b610af681610ae3565b82525050565b60008115159050919050565b610b1181610afc565b82525050565b600060c0820190508181036000830152610b318189610aaa565b90508181036020830152610b458188610aaa565b90508181036040830152610b598187610aaa565b9050610b686060830186610aed565b610b756080830185610aed565b610b8260a0830184610b08565b979650505050505050565b610b9681610ae3565b8114610ba157600080fd5b50565b600081359050610bb381610b8d565b92915050565b60008060008060808587031215610bd357610bd26108cb565b5b600085013567ffffffffffffffff811115610bf157610bf06108d0565b5b610bfd878288016109ed565b945050602085013567ffffffffffffffff811115610c1e57610c1d6108d0565b5b610c2a878288016109ed565b935050604085013567ffffffffffffffff811115610c4b57610c4a6108d0565b5b610c57878288016109ed565b9250506060610c6887828801610ba4565b91505092959194509250565b6000602082019050610c896000830184610b08565b92915050565b600082825260208201905092915050565b6000610cab82610a64565b610cb58185610c8f565b9350610cc5818560208601610a80565b610cce816108df565b840191505092915050565b610ce281610ae3565b82525050565b610cf181610afc565b82525050565b600060c0830160008301518482036000860152610d148282610ca0565b91505060208301518482036020860152610d2e8282610ca0565b91505060408301518482036040860152610d488282610ca0565b9150506060830151610d5d6060860182610cd9565b506080830151610d706080860182610cd9565b5060a0830151610d8360a0860182610ce8565b508091505092915050565b60006020820190508181036000830152610da88184610cf7565b905092915050565b7f4e487b7100000000000000000000000000000000000000000000000000000000600052602260045260246000fd5b60006002820490506001821680610df757607f821691505b602082108103610e0a57610e09610db0565b5b50919050565b600081905092915050565b6000610e2682610a64565b610e308185610e10565b9350610e40818560208601610a80565b80840191505092915050565b6000610e588284610e1b565b915081905092915050565b60008190508160005260206000209050919050565b60006020601f8301049050919050565b600082821b905092915050565b600060088302610ec57fffffffffffffffffffffffffffffffffffffffffffffffffffffffffffffffff82610e88565b610ecf8683610e88565b95508019841693508086168417925050509392505050565b6000819050919050565b6000610f0c610f07610f0284610ae3565b610ee7565b610ae3565b9050919050565b6000819050919050565b610f2683610ef1565b610f3a610f3282610f13565b848454610e95565b825550505050565b600090565b610f4f610f42565b610f5a818484610f1d565b505050565b5b81811015610f7e57610f73600082610f47565b600181019050610f60565b5050565b601f821115610fc357610f9481610e63565b610f9d84610e78565b81016020851015610fac578190505b610fc0610fb885610e78565b830182610f5f565b50505b505050565b600082821c905092915050565b6000610fe660001984600802610fc8565b1980831691505092915050565b6000610fff8383610fd5565b9150826002028217905092915050565b61101882610a64565b67ffffffffffffffff811115611031576110306108f0565b5b61103b8254610ddf565b611046828285610f82565b600060209050601f8311600181146110795760008415611067578287015190505b6110718582610ff3565b8655506110d9565b601f19841661108786610e63565b60005b828110156110af5784890151825560018201915060208501945060208101905061108a565b868310156110cc57848901516110c8601f891682610fd5565b8355505b6001600288020188555050505b50505050505056fea26469706673582212201845c10b80e6a0a092a9b6ff1027d198c3cd878d5ccfd339ffa57b2be78bea1164736f6c634300081b0033",
  "linkReferences": {},
  "deployedLinkReferences": {}
}